:020000040800F2
:1020000000000120596F00080000000000000000DF
:10201000F56E0008F56E0008F56E0008000000007F
:10202000000000000000000000000000F56E000845
:10203000F56E000800000000F56E0008E1090020C0
:10204000F56E0008F56E0008F56E0008D16E000808
:10205000F56E0008F56E0008F56E0008F56E0008D4
:10206000F56E0008F56E0008BD480008F56E000822
:10207000F56E0008F56E0008F56E0008F56E0008B4
:10208000F56E0008F56E0008F56E0008F56E0008A4
:10209000F56E0008F56E0008F56E0008F56E000894
:1020A000F56E0008F56E0008F56E0008F56E000884
:1020B000F56E0008F56E00083D230008F56E000877
:1020C000F56E0008F56E0008F56E0008F56E000864
:1020D000F56E0008892A0008792B0008F56E0008C3
:1020E000F56E0008F56E0008F56E0008F56E000844
:1020F000F56E0008F56E0008F56E0008F56E000834
:10210000F56E0008F56E0008F56E0008F56E000823
:10211000F56E0008F56E0008F56E0008F56E000813
:10212000F56E0008F56E0008F56E0008F56E000803
:10213000000000000000000000000000000000009F
:10214000000000000000000000000000000000008F
:10215000000000000000000000000000000000007F
:10216000000000000000000000000000000000006F
:10217000000000000000000000000000000000005F
:10218000000000000000000000000000000000004F
:10219000000000000000000000000000000000003F
:1021A000000000000000000000000000000000002F
:1021B000000000000000000000000000000000001F
:1021C000000000000000000000000000000000000F
:1021D00000000000000000000000000000000000FF
:1021E0005FF808F10022034B1A801A8892B28242EB
:1021F000FBD37047FE0A002001290146024801D1A5
:1022000005F030BA05F030BA0014014008B54FF4BB
:10221000004004F073FF012140F2FD1004F0C4FF00
:1022200001214FF4804004F0BFFF01214FF4003042
:1022300004F0C6FF01214FF4064004F0B5FFBDE8ED
:1022400008400121042004F0BBBF000010B5364C4B
:10225000182320460322042105F0B4F92046042364
:102260000322082105F0AEF92046182303224FF47B
:10227000007105F0A7F92046042304F54064032209
:102280004FF4806105F09EF92046102303224FF49D
:10229000807105F097F92046102303224FF4007156
:1022A00005F090F92046102303224FF4806105F0D9
:1022B00089F92046102303224FF4006105F082F9CA
:1022C000204648230322012105F07CF920464823BB
:1022D0000322022105F076F9204648230322042137
:1022E00005F070F9204648230322082105F06AF919
:1022F000482303222046102105F064F920464FF4BC
:10230000807105F0B1F920464FF4007105F0ACF989
:1023100020464FF4806105F0A7F92046BDE8104043
:102320004FF4006105F0A0B9000801404FF00060D3
:10233000014904F0D9BE00BF00200000012110B502
:102340001E4805F031FA1E4A138801339BB2B3F5DB
:10235000FA7F1DD213801B4A138801339BB213806E
:10236000194B1B889BB223B1184A13780133DBB297
:102370001370174B1B889BB223B1164A1378013395
:10238000DBB21370144A138801339BB2138010BD63
:102390000023124C138023784FF4807110483BB116
:1023A00005F060F92378B3FA83F35B092370D2E771
:1023B00005F05AF901220B4B1A80F3E700080040A0
:1023C000920A0020F00A00201412002018130020A6
:1023D0000A100020040E0020FE0A0020950A0020AA
:1023E00000140140000B00207FB5002303222021B0
:1023F0001D4805F0E7F81D4804F0FAFE01211B48CE
:1024000004F051FF684604F045FF01234FF4A02279
:102410004FF46021CDE9002300221448CDE90221C8
:10242000694604928DF8143004F010FF0F4804F050
:1024300043FF0E4804F045FF0028FAD101210B4864
:1024400004F089FF052301220F21084804F055FFFD
:102450004FF4E041054804F038FF0121034804F03F
:102460003AFF07B05DF804FB001001400024014072
:1024700008B504F0EDFF00F0F1FC00F081FE02F081
:10248000CFF9FFF7B1FF04F057FB40F23A214FF4C8
:10249000AF7001F0C2FB9623E82200210A2001F070
:1024A0000EFE0E210220164A02F0BEF80E211A205E
:1024B000144A02F0B9F8144B1B78FBB1134A0E21F1
:1024C000084602F0B1F80A210E20114A02F0ACF8D9
:1024D0000A211A200F4A02F0A7F80A2102200E4A08
:1024E00002F0A2F8122101200C4A02F09DF8BDE88A
:1024F0000840122119200A4A02F096B8094ADEE77C
:1025000060D0000869D00008EE0A002062D0000800
:1025100068D000086BD0000891D000086DD000088A
:1025200072D0000865D00008A0F21450B0F5FA7F10
:1025300008B508D8C839C82905D8FFF799FF04F0AD
:1025400039FA012008BD0020FCE7000003882DE9CE
:10255000F341A3F516739BB2B3F5E17F05460E4632
:10256000AC4BAD4C00F232810A88A2F5167292B2E1
:10257000C82A00F22B811A780132D2B21A701A7866
:10258000272A14D900221A70237813F001030ED1E0
:10259000227842F001022270A04A1178002900F04E
:1025A000118113709E4A0E21084602F03DF82B88D7
:1025B0009C4FA3F214539BB2B3F5FA7FDFF88482E9
:1025C000994B00F20A813288A2F5167292B2C82A9B
:1025D00000F203811A780132D2B21A701A78272ACF
:1025E00040F2118100221A702378990700F10B81C3
:1025F000237843F00203237004F058FA40F6B8320F
:102600002B88934240F0FF8032889A4240F0FB8052
:102610003B780133DBB23B703B78272B40F2EB80F9
:1026200000233B70207810F0040040F0E480237811
:1026300043F00403237004F005FB2B88A3F5167305
:102640009BB2B3F5C87F00F2D6803388A3F56173DF
:102650009BB2FA2B00F2CF8098F800300133DBB246
:1026600088F8003098F80030272B0CD9002388F820
:10267000003023781A0706D42378012043F008039A
:10268000237004F0DFFA2B88643B9BB2B3F5967F8E
:10269000664B00F2A9803288A2F5167292B2C82A5F
:1026A00000F2A2801A780132D2B21A701A78272A60
:1026B0000AD900221A702378DB0605D4237843F068
:1026C0001003237004F092F92B88A3F214539BB2E9
:1026D000B3F5FA7F11D83388A3F561739BB2FA2B57
:1026E0000BD8534B1A88013A92B21A801A8892B2C8
:1026F0001AB91A88013292B21A802B88643B9BB2B5
:10270000B3F5967F10D83388A3F561739BB2FA2B8B
:102710000AD8474A138801339BB2138013889BB2AF
:102720007F2B84BF7F2313802B88A3F214539BB28B
:10273000B3F5FA7F1DD83388C83B9BB2C82B18D895
:1027400004F096F8122101203A4A01F06DFF0DF1D4
:10275000060101A802F0CCF8BDF80610BDF804008F
:10276000FFF7E2FE0028F2D00123334A1380334AF8
:1027700013802B88643B9BB2B3F5967F1AD83388BD
:10278000C83B9BB2C82B15D804F072F804F01CFAB1
:1027900012210120274A01F047FF0DF1060101A88F
:1027A00002F0A6F8BDF80610BDF80400FFF7BCFE65
:1027B0000028F2D00023204A1380204A138002B060
:1027C000BDE8F081012313701D4AECE600221A7067
:1027D000237803F0FE032370E9E600221A702378C1
:1027E00003F0FD03237009E700221A70237803F039
:1027F000EF03237068E7002388F80030237803F0A4
:10280000F70323703FE700233B70237803F0FB03BB
:10281000237012E7EC0A0020ED0A0020EE0A0020E7
:1028200065D00008E60A0020E70A0020FC0A002024
:102830000200002076D00008F20A0020E40A0020FE
:1028400062D00008EB0A00202DE9F84FFFF7DEFC0C
:10285000FFF76CFDFFF7FAFC4FF47A72614B624DA3
:102860001B680024B3FBF2F3604A013B5360F02382
:1028700085F82330072394604FF44070136004F010
:10288000F5FB04F0D9FD04F0EBFD594B186080B95D
:1028900004F014FE574C2070012004F04DFE20700F
:1028A000EA68554B02F4E0621343EB60BFF34F8FCD
:1028B000FEE7FFF7DDFD4FF6FF73A1464F4D504F8A
:1028C000DFF86C814F4E2B80DFF868B104F0D4F94B
:1028D000BBF800309BB2002BF8D04FF0000A39460D
:1028E0004046ABF800A009F1010902F001F83946B1
:1028F0004046FFF72BFEB9F5FA7F05DBD146424A89
:10290000138801339BB21380404B1B889BB23BB1B1
:102910003F4B1A78022A03D900221A7000F01EFADF
:102920003C4B1B889BB243B13B4B1B78022B04D919
:102930000022374B1A7000F051FADFF8FCB09BF818
:10294000003023B14FF40071344804F08BFEDFF8FF
:10295000ECA09AF8003023B14FF480612F4804F0C6
:1029600081FE9BF8003023B94FF400712B4804F02E
:102970007BFE9AF8003023B94FF48061274804F0B9
:1029800073FE0421304604F0FBFC20B114213046D4
:1029900004F0E9FC0134312C1ADD214B29881A8816
:1029A00092B2914214D04FF0010A1A8851462A80FF
:1029B0001C4A022082F800A01B881B4A9BB2C3F16C
:1029C000800301F031FE51460220184A01F02CFE2E
:1029D0003046042104F0DAFC0121304604F084FC86
:1029E00072E700BF1C00002000ED00E010E000E0F6
:1029F000F80A0020000000200400FA05F40A002074
:102A0000E40A002000240140E80A002014120020FB
:102A1000181300200A100020040E002000140140AA
:102A200002000020EA0A002093D000086F24010869
:102A3000F20A0020F00A0020050E0020080F0020F6
:102A40000449054BCA6802F4E0621343CB60BFF34C
:102A50004F8FFEE700ED00E00400FA0508B504F032
:102A6000EBFC002307499A0002F1006202F5FF2205
:102A7000126841F823200133402BF4D1BDE808400F
:102A800004F0E6BC040D002010B540F2255130489A
:102A900004F010FFC0B12E4804F008FF2D4A2E4963
:102AA00013889BB2C854138801339BB21380002251
:102AB0002A4B1A702A4B1A780AB901221A7040F26E
:102AC0002551234804F016FF40F22771204804F0F6
:102AD000F1FEB8B1234C244B22881B8892B29BB2E2
:102AE0009A4228D22388214A9BB2D15C184804F02C
:102AF000D9FE238801339BB2238040F2277114480A
:102B000004F0F8FE40F22661114804F0D3FE88B1CB
:102B1000002240F226610E4804F0ACFE40F226612D
:102B20000B4804F0E7FE0022114B1A70114B197884
:102B300001B11A7010BD002240F22771044804F060
:102B400099FE012240F22661014804F093FED4E789
:102B50000038014014120020121100201813002028
:102B6000080F0020060F00200C100020090F002085
:102B70000E100020050E002010B540F225513048FF
:102B800004F098FEC0B12E4804F090FE2D4A2E4964
:102B900013889BB2C854138801339BB21380002260
:102BA0002A4B1A702A4B1A780AB901221A7040F27D
:102BB0002551234804F09EFE40F22771204804F07E
:102BC00079FEB8B1234C244B22881B8892B29BB269
:102BD0009A4228D22388214A9BB2D15C184804F03B
:102BE00061FE238801339BB2238040F22771144891
:102BF00004F080FE40F22661114804F05BFE88B1CB
:102C0000002240F226610E4804F034FE40F22661B4
:102C10000B4804F06FFE0022114B1A70114B19780B
:102C200001B11A7010BD002240F22771044804F06F
:102C300021FE012240F22661014804F01BFED4E788
:102C4000004400400A10002016120020040E00204C
:102C5000080F00201212002010110020060E002084
:102C600016130020050E0020F8B5244B0D4698429F
:102C7000144622D1224E337803F0FF07002BFAD1FD
:102C80004FF4807239461F4805F076F922462946EE
:102C90001C4805F0FBF81C4BA4B21C80012440F238
:102CA00027712246194B15481F80347004F0E2FD4D
:102CB000174B1A7802B91C70F8BD164B9842FBD11D
:102CC000154E337803F0FF07002BFAD14FF48072D2
:102CD0003946124805F050F9224629460F4805F0BA
:102CE000D5F80F4BA4B21C8001240E4B22461F8046
:102CF00040F2277107483470D8E700BF0038014020
:102D00000E100020090F00200C100020060F0020DC
:102D1000050E00200044004016130020060E00207F
:102D200010110020121200200EB433B50A4D05AA6E
:102D300052F8041B04462846019205F099FA2846E9
:102D400005F054FA294602462046FFF78DFF02B0EF
:102D5000BDE8304003B070470F1000201B4970B52C
:102D60000B889BB24BB31A4A1378022B2BD15379A1
:102D7000032B28D1174853780078834201D0212BA8
:102D800021D19478D57883F00203107963406B40A9
:102D90009679434083F003039E4214D12C40204097
:102DA000FF2810D1FFF74CFE98B214540133088865
:102DB0009DB280B2A842F7D80C80074B1A780AB1AE
:102DC00000221A7070BD00230024F0E714120020C6
:102DD0001211002017130020080F00201B4970B5A6
:102DE0000B889BB24BB31A4A1378022B2BD1537921
:102DF000032B28D1174853780078834201D0212B28
:102E000021D19478D57883F00203107963406B4028
:102E10009679434083F003039E4214D12C40204016
:102E2000FF2810D1FFF70CFE98B214540133088824
:102E30009DB280B2A842F7D80C80074B1A780AB12D
:102E400000221A7070BD00230024F0E70A10002051
:102E50001612002017130020080F002070B5002460
:102E6000474B01251C80474B86B01C80464B474E84
:102E70001C80474B68461C70464B34701C80464B88
:102E80008DF802401C80454B01951C80444B1C7002
:102E900040F22523ADF8003004F0F2F840F226238A
:102EA0006846ADF800308DF80240019504F0E8F86E
:102EB0003378002B54D1182303224FF40071394882
:102EC00004F080FB042303224FF48061354804F0B2
:102ED00079FB182303220421324804F073FB0423F6
:102EE000032208212F4804F06DFB00234FF41652F3
:102EF000CDE902234FF440222B4802A9ADF814304B
:102F0000049204F055FC294802A904F051FC012266
:102F100040F22551244804F0ADFC012240F2255135
:102F2000224804F0A7FC01211F4804F097FC01216E
:102F30001E4804F093FCFFF791FD1D4A1D4B1168DC
:102F4000994208BF52681C4B04BFD2B21A701A785B
:102F500012B11A78202A01D901221A7006B070BD68
:102F60002946042004F082FB182303224021134841
:102F700004F028FB0423032280211048A7E700BFA8
:102F800014120020060F00200C1000200910002051
:102F90000E1000200A100020121200201011002034
:102FA0001613002000080140003801400044004092
:102FB000040D00205505056817130020000C014082
:102FC0004FF08832034B1A605A604FF6FF72DA6096
:102FD000704700BF001801404FF03332034B1A60B6
:102FE0005A604FF6FF72DA60704700BF0018014068
:102FF0004FF48051014804F035BB00BF001401407C
:103000004FF48051014804F02FBB00BF0014014071
:103010004FF40051014804F025BB00BF00140140EB
:103020004FF40051014804F01FBB00BF00140140E1
:103030004FF48041014804F015BB00BF001401406B
:103040004FF48041014804F00FBB00BF0014014061
:103050004FF40041014804F005BB00BF00140140DB
:103060004FF40041014804F0FFBA00BF00140140D2
:1030700010B50446FFF7CCFFFFF7C2FF044BDC603E
:10308000FFF7DEFFFFF7D4FFBDE81040FFF7B0BF4A
:103090000018014010B50446FFF7C2FFFFF7B0FF6C
:1030A000044BDC60FFF7CCFFFFF7C2FFBDE8104028
:1030B000FFF79EBF0018014010B50C46FFF7EAFF6E
:1030C0002046BDE81040FFF7D3BF000010B5FFF762
:1030D000E1FFFFF775FFFFF79BFFFFF791FFFFF79A
:1030E000BFFFFFF7B5FF044B9C68FFF781FFFFF7B9
:1030F00073FFA0B210BD00BF001801402220FFF7EF
:10310000C9BF000048F689120D4B10B51B880C464C
:10311000014623F01000904203D049F61912934261
:1031200008D14E20FFF7C8FF21464F20BDE81040D0
:10313000FFF7C2BF2020FFF7BFFF21462120F5E7A0
:103140004614002008B5FFF7DDFF2220FFF7A2FF9D
:10315000024B1888BDE80840FFF78ABF50140020D2
:10316000002138B505460846FFF7CCFF4FF49634EA
:10317000FFF7C4FF2846FFF77BFF013CFAD138BDBB
:10318000F02238B5DE4B00241A804FF4A072DD4BDC
:103190001E251A801422DC4B01211C80DB4BDC48ED
:1031A0001C80DC4B1C80DC4B1C80DC4B1C70DC4B23
:1031B0001D80DC4B1A804FF6FF72DB4B1A80DB4B15
:1031C00003221C80102304F0FDF9102303220221A6
:1031D000CF4804F0F7F9102303220421CC4804F06F
:1031E000F1F9102303220821C94804F0EBF9102358
:1031F00003221946C64804F0E5F9102303222021D2
:10320000C34804F0DFF9102303224021C04804F032
:10321000D9F9102303228021BD4804F0D3F91023EB
:1032200003224FF48071BA4804F0CCF91023032232
:103230004FF40071B64804F0C5F9102303224FF48F
:103240008061B34804F0BEF9102303224FF40061FB
:10325000AF4804F0B7F9102303224FF48051AC4873
:1032600004F0B0F9102303224FF40051A84804F0F1
:10327000A9F9102303224FF48041A54804F0A2F9D4
:10328000102303224FF40041A14804F09BF91023BE
:1032900003224FF48051A64804F094F9102303222E
:1032A0004FF40051A24804F08DF9102303224FF48B
:1032B00000419F4804F086F9102303224FF4804117
:1032C0009B4804F07FF93220FEF78CFF0121204655
:1032D000FFF7F2FE3220FEF785FF2046FFF7F6FEED
:1032E000944B188049F22533984204D049F2283390
:1032F000984240F021811021E720FFF7DDFE0121F7
:103300000020FFF7D9FE4FF480710120FFF7D4FEB3
:103310004FF4E0610220FFF7CFFE41F230010320BD
:10332000FFF7CAFE00210420FFF7C6FE40F2072186
:103330000820FFF7C1FE00210920FFF7BDFE002194
:103340000A20FFF7B9FE01210C20FFF7B5FE00218E
:103350000D20FFF7B1FE00210F20FFF7ADFE002189
:103360001020FFF7A9FE07211120FFF7A5FE00217D
:103370001220FFF7A1FE00211320FFF79DFE32204F
:10338000FEF730FF41F290511020FFF795FE40F21A
:1033900027211120FFF790FE3220FEF723FF9C210A
:1033A0001220FFF789FE3220FEF71CFF4FF4C851B0
:1033B0001320FFF781FE23212920FFF77DFE0E2138
:1033C0002B20FFF779FE3220FEF70CFF0021202092
:1033D000FFF772FE40F23F112120FFF76DFE322011
:1033E000FEF700FF07213020FFF766FE40F207716D
:1033F0003120FFF761FE06213220FFF75DFE40F22B
:1034000004713520FFF758FE41F604713620FFF7AE
:1034100053FE04213720FFF74FFE00213820FFF72D
:103420004BFE40F206713920FFF746FE40F2017173
:103430003C20FFF741FE0F213D20FFF73DFE3220EB
:10344000FEF7D0FE00215020FFF736FEEF2151207D
:10345000FFF732FE00215220FFF72EFE40F23F110F
:103460005320FFF729FE4FF427416020FFF724FE89
:1034700001216120FFF720FE00216A20FFF71CFEDA
:1034800000218020FFF718FE00218120FFF714FEA5
:1034900000218220FFF710FE00218320FFF70CFEA1
:1034A00000218420FFF708FE00218520FFF704FE9D
:1034B00010219020FFF700FE00219220FFF7FCFD75
:1034C00003219320FFF7F8FD4FF488719520FFF753
:1034D000F3FD00219720FFF7EFFD00219820FFF773
:1034E000EBFD40F233110720FFF7E6FD002120201D
:1034F000FFF7E2FD40F23F112120FFF7DDFDE2E1A1
:1035000020140020541400204214002052140020E3
:10351000001801404A140020481400201A1300200B
:103520001E1400204C140020501400201C130020F6
:10353000001401404614002020F02003B3F5134F7F
:1035400040F0AA8021462046FFF7B6FD4FF4807177
:103550000120FFF7B1FD4FF4E0610220FFF7ACFD61
:1035600041F230010320FFF7A7FD21460420FFF7B9
:10357000A3FD40F202210820FFF79EFD214609200D
:10358000FFF79AFD21460A20FFF796FD01210C2046
:10359000FFF792FD21460D20FFF78EFD21460F20FB
:1035A000FFF78AFD3220FEF71DFE40F201110720D1
:1035B000FFF782FD3220FEF715FE4FF486511020F2
:1035C000FFF77AFD07211120FFF776FD4FF4887190
:1035D0001220FFF771FD4FF430611320FFF76CFDEF
:1035E00021462920FFF768FD44F210012B20FFF748
:1035F00063FD21465020FFF75FFDEF215120FFF7CB
:103600005BFD21465220FFF757FD40F23F1153204A
:10361000FFF752FD4FF41C516020FFF74DFD0121D3
:103620006120FFF749FD21466A20FFF745FD21464D
:103630008020FFF741FD21468120FFF73DFD214617
:103640008220FFF739FD21468320FFF735FD214613
:103650008420FFF731FD21468520FFF72DFD102145
:103660009020FFF729FD21469220FFF725FD01213B
:103670009320FFF721FD4FF488719520FFF71CFD83
:1036800021469720FFF718FD21469820FFF714FDEB
:1036900040F27311072030E741F20553984240F0A1
:1036A0001B8121460720FFF707FD3220FEF79AFD18
:1036B0004FF48E711220FFF7FFFC0121A420FFF7C9
:1036C000FBFC0F210820FFF7F7FC08210A20FFF779
:1036D000F3FC08210D20FFF7EFFC40F207713020CA
:1036E000FFF7EAFC07213120FFF7E6FC40F2036117
:1036F0003220FFF7E1FC4FF4E0613320FFF7DCFC00
:1037000040F202213420FFF7D7FC02213520FFF7D9
:10371000D3FC41F60F713620FFF7CEFC40F2077163
:103720003720FFF7C9FC21463820FFF7C5FC2146AA
:103730003920FFF7C1FC40F207713A20FFF7BCFCCB
:1037400021463B20FFF7B8FC07213C20FFF7B4FCE3
:1037500021463D20FFF7B0FC3220FEF743FD01215A
:103760000720FFF7A9FC01211720FFF7A5FC322055
:10377000FEF738FD4FF4BD511020FFF79DFC40F2DD
:1037800017211120FFF798FC4FF48F711220FFF7DB
:1037900093FC4FF470611320FFF78EFC21462A2022
:1037A000FFF78AFC0A212920FFF786FC4FF49F715E
:1037B0001220FFF781FC21465020FFF77DFCEF210E
:1037C0005120FFF779FC21465220FFF775FC40F2AB
:1037D0003F115320FFF770FC4FF41C516020FFF79E
:1037E0006BFC01216120FFF767FC21466A20FFF78F
:1037F00063FC21468020FFF75FFC21468120FFF714
:103800005BFC21468220FFF757FC21468320FFF70F
:1038100053FC21468420FFF74FFC21468520FFF70B
:103820004BFC13219020FFF747FC4FF4407192208E
:10383000FFF742FC05219320FFF73EFC214695202F
:10384000FFF73AFC21469720FFF736FC21469820E7
:10385000FFF732FC4FF480710120FFF72DFC4FF48D
:10386000E0610220FFF728FC41F230010320FFF75E
:1038700023FC21460420FFF71FFC21460C20FFF704
:103880001BFC21460F20FFF717FC21462020FFF7E5
:1038900013FC21462120FFF70FFC21210720FFF711
:1038A0000BFCC820FEF79EFC61210720FFF704FCFB
:1038B000C820FEF797FC072040F27311FFF7FCFBCE
:1038C000C820FEF78FFC4FF4FA70FEF78BFCBDE8C2
:1038D00038400020FFF744BC48F68913984240F076
:1038E000B98001212046FFF7E7FB4AF6A401032037
:1038F000FFF7E2FB21460C20FFF7DEFB40F60C0150
:103900000D20FFF7D9FB4FF42C510E20FFF7D4FB0D
:10391000B0212846FFF7D0FB42F63F310120FFF7E8
:10392000CBFB4FF4C0610220FFF7C6FB21461020FD
:10393000FFF7C2FB46F270011120FFF7BDFB2146E5
:103940000520FFF7B9FB21460620FFF7B5FB4EF631
:103950001C711620FFF7B0FB03211720FFF7ACFB0B
:1039600040F233210720FFF7A7FB21460B20FFF78A
:10397000A3FB21460F20FFF79FFB21464120FFF7C5
:103980009BFB21464220FFF797FB21464820FFF78B
:1039900093FB40F23F114920FFF78EFB21464A205E
:1039A000FFF78AFB21464B20FFF786FB4FF46F4160
:1039B0004420FFF781FB21464520FFF77DFB40F2C5
:1039C0003F114620FFF778FB40F207713020FFF7E8
:1039D00073FB4FF401713120FFF76EFB4FF401715F
:1039E0003220FFF769FB40F202513320FFF764FBFE
:1039F00040F207513420FFF75FFB4FF4017135208F
:103A0000FFF75AFB4FF401713620FFF755FB40F2E8
:103A100002513720FFF750FB40F202313A20FFF706
:103A20004BFB40F202313B20FFF746FB21462320AF
:103A3000FFF742FB21462420FFF73EFB4FF40041F5
:103A40002520FFF739FB21464F20FFF735FB2146A4
:103A50004E2052E548F6991398427FF434AF012185
:103A60002046FFF729FB43F63F310120FFF724FBF7
:103A70004FF4C0610220FFF71FFB07210C20FFF766
:103A80001BFB06210D20FFF717FB4FF448510E20BA
:103A9000FFF712FBBB212846FFF70EFB46F6642119
:103AA0000320FFF709FB21460F20FFF705FB4FF42A
:103AB0006F414420FFF700FB21464520FFF7FCFA49
:103AC00040F23F114620FFF7F7FA21463020FFF77A
:103AD000F3FA40F206713120FFF7EEFA40F20621C8
:103AE0003220FFF7E9FA4FF440713320FFF7E4FA90
:103AF00002213420FFF7E0FA21463520FFF7DCFAF7
:103B000040F207713620FFF7D7FA4FF400713720E3
:103B1000FFF7D2FA40F608113A20FFF7CDFA40F647
:103B20000D713B20FFF7C8FA06212820FFF7C4FAE1
:103B300041F2EB212F20FFF7BFFA4FF4E04126209E
:103B4000FFF7BAFA4BF2E3012020FFF7B5FA442160
:103B50002720FFF7B1FA47F645612E20FFF7ACFAB0
:103B600021461020FFF7A8FA2846FEF73BFB46F651
:103B700070011120FFF7A0FA33218BE590422DE967
:103B8000F84305460C461E4605D1994203D1BDE8CF
:103B9000F843FFF7D7BA311B531B0029B8BF49427E
:103BA000002BB8BF5B4299421BDDB44205D92346C6
:103BB00034461E462B4615461A460027A2EB05083A
:103BC000A6EB0409B44201D3BDE8F883B7FBF9F0D2
:103BD00028442146C0B20134FFF7B4FAA4B24744E6
:103BE000F0E7954205D9234634461E462B46154636
:103BF0001A464FF00008AFB2361B1FFA82F9551B68
:103C0000B945E1D3B8FBF5F12144F8B289B20137E7
:103C1000FFF798FABFB2B044F2E72DE9F04F0C4637
:103C2000C5B205F120038FB0DBB205F12206019386
:103C3000F6B20B4632460198FFF7A0FF05F11E03CE
:103C4000DBB20593631C9BB2324619460598FFF719
:103C500095FF05F11C0AA31C5FFA8AFA9BB2324653
:103C600019465046FFF78AFF05F11B09E31C05F1D1
:103C70002107FFB25FFA89F99BB23A4619464846D6
:103C8000FFF77CFF05F11A06231DF6B29BB23A46F8
:103C900019463046FFF772FF631D9BB23A4619463C
:103CA0003046FFF76BFF05F11907A31DFFB29BB26A
:103CB00019463846019AFFF761FFE31D9BB219468A
:103CC0003846019AFFF75AFF05F1180B04F1080373
:103CD00005F11F085FFA8BFB9BB25FFA88F842463A
:103CE00019465846FFF74AFF04F109039BB21946EB
:103CF0005846059AFFF742FF05F11D0704F10A0334
:103D00009BB2FFB23A4619465846FFF737FF04F117
:103D10000B039BB2524619465846FFF72FFF04F19A
:103D20000C039BB24A4619465846FFF727FF05F198
:103D30000D03DBB204F10D091FFA89F9089305F1AF
:103D40000F024B4649460898D2B2FFF717FF05F11C
:103D50002503DBB2099349464B464046099AFFF7D3
:103D60000DFF05F10903DBB20A9305F1130304F11A
:103D70000E09DBB21FFA89F90B9305F127085FFAE8
:103D800088F84B4649460B9A0A98FFF7F7FE4B46D0
:103D9000424649463846FFF7F1FE05F10803DBB21B
:103DA00004F10F07BFB20C9305F116023B463946EA
:103DB0000C98D2B2FFF7E2FE05F12903DBB20293C1
:103DC00039463B463046029AFFF7D8FEAB1DDBB2C0
:103DD000069304F110039BB205F12A0219460698D6
:103DE000D2B20392FFF7CAFE6B1DDBB2049305F15A
:103DF0002B0B04F111035FFA8BFB9BB25A46194659
:103E00000498FFF7BBFE04F112039BB25A46194611
:103E10000498FFF7B3FE2B1DDBB2079304F11303E5
:103E20009BB25A4619460798FFF7A8FE05F1030909
:103E300004F114035FFA89F99BB219464846029AC5
:103E4000FFF79CFE04F115039BB205F1280A5FFA07
:103E50008AF2194648460092AF1CFFF78FFE04F124
:103E60001603FFB29BB219463846009AFFF786FE4A
:103E700004F117039BB2424619463846FFF77EFE0F
:103E800004F118039BB2424619463846FFF776FE06
:103E900005F12606681C04F119035FFA80FAF6B2F0
:103EA0009BB2324619465046FFF768FE04F11A03EA
:103EB0009BB2324619465046FFF760FE04F11B03E1
:103EC0009BB2324619465046FFF758FE04F11C03D8
:103ED0009BB2324619465046FFF750FE04F11D03CF
:103EE0009BB2324619465046FFF748FE04F11E03C6
:103EF0009BB2324619465046FFF740FE04F11F03BD
:103F00009BB2324619465046FFF738FE04F12003B3
:103F10009BB2324619465046FFF730FE04F12103AA
:103F20009BB2424619465046FFF728FE04F1220391
:103F30009BB2424619463846FFF720FE04F12303A0
:103F40009BB219463846009AFFF718FE04F1240385
:103F50009BB219463846009AFFF710FE04F125037C
:103F60009BB219463846029AFFF708FE04F1260371
:103F70009BB219464846039AFFF700FE05F12C074D
:103F800004F12703FFB29BB23A4619464846FFF7B1
:103F9000F5FD04F128039BB205F12D0219464846B0
:103FA000D2B20D92FFF7EAFD04F129039BB2194644
:103FB00048460D9AFFF7E2FD04F12A039BB2194629
:103FC0000D9A0798FFF7DAFD04F12B039BB23A46EE
:103FD00019460798FFF7D2FD04F12C039BB23A462D
:103FE00019460498FFF7CAFD04F12D039BB25A4607
:103FF00019460498FFF7C2FD04F12E039BB25A46FE
:1040000019460698FFF7BAFD04F12F039BB2194633
:10401000039A0698FFF7B2FD04F130039BB2E81D46
:104020001946039AC0B2FFF7A9FD04F131039BB210
:104030001946029A0C98FFF7A1FD04F132039BB2D6
:104040001946009A0A98FFF799FD04F133039BB2D1
:1040500005F10A0042461946C0B2FFF78FFD04F190
:1040600034039BB205F10B0032461946C0B204F18D
:104070003506FFF783FDB6B205F10C003346314635
:104080000B9AC0B2FFF77AFD363433463146099AAF
:104090000598FFF773FDA4B205F1120223462146ED
:1040A0000898D2B2FFF76AFD2346214605F12402A3
:1040B0000198D2B20FB0BDE8F04FFFF75FBD2DE918
:1040C000F0411C4606460D4617460B46FFF756FDC7
:1040D0002346324629463046FFF750FD23463A46EE
:1040E00021463046FFF74AFD23463A4629463846E0
:1040F000BDE8F041FFF742BD38B5044CC0B2258899
:104100002280FFF71FF8258038BD00BF5014002023
:104110002DE9F843DFF844800546002446460C4F5D
:10412000DFF83C9017F8013BB8F800002B420CBFB9
:10413000084B094BB9F800101A88FFF7DDFF3388E8
:1041400001340133082C3380ECD1BDE8F88300BF83
:10415000DE1801081C130020501400204414002015
:104160004E14002030B54FF41375A0F52C4494FB89
:10417000F5F2931C99B21C2305FB124292FBF3F358
:104180009BB2042B16D803331C229BB25B0143EA7B
:1041900081236FEA434394FBF2F06FEA534302FB3F
:1041A000104080B2102894BF013002309BB280B220
:1041B000184330BD0A2B01D80533E5E7102B94BF17
:1041C00007330933E0E70000B0F5304F4FEA102322
:1041D00013D3C0B29F2810D95033DBB2603003EB49
:1041E0004302C3B203EB4213054A12F8131002EB69
:1041F0004303587840EA012070470020704700BF11
:104200009ED000081F282DE9F84F13D80D2804D19F
:104210000022304B1A80BDE8F88F0A28FBD12E4AC5
:104220002E48118800884B1C9BB298421380F2D80C
:104230001180EDE7284F2A493B886FF00F0A1B01D8
:104240000B80244B0AFB00FA9946264E88464FEA1B
:10425000401B254D254906EB00160BF1100B4401C0
:104260001888C00008802248008840BB3078287039
:1042700015F8010BFFF74CFFB8F800001D4B01309B
:104280009D421A49134BA8F8000006F10106E7D138
:10429000B9F80030184A013312889BB29A42A9F843
:1042A0000030B8D800233A880C49A9F800300988B2
:1042B000531C9BB2994298BF13463B80ABE70F4813
:1042C000028806EB0A000AB9005DD0E710F80B007F
:1042D000CDE700BF42140020521400204C140020EF
:1042E0004E1400205EE30008221400204414002035
:1042F00048140020321400201E1400204A1400200C
:104300002DE9F84F994B1B78F3B9FFF75DFF984BF8
:10431000C0F384229E5CC0F344121A4492F82070C9
:1043200000F01F001844BB1E90F84000132B38D833
:10433000DFE803F03337330D330D333537330D35C5
:10434000350D330D35350D0DFFF70CFFDFE701257A
:10435000012E07F1FF3301D0102E24D1002800F0E8
:10436000CF804FF0020C142B00F2C280DFE813F074
:10437000FB00FB00FB00FB00FB00FB00FB00FB0065
:10438000240026002600260024002100BB00BB00DC
:10439000BB00210024002600FB000225D8E70325EE
:1043A000D6E70025D4E7002800F0DA804FF0030CB0
:1043B000D9E7002800F09E80062203E0002800F0E4
:1043C0009B8007226B4B00219A46DFF8C8E1DFF89B
:1043D000C8916EB1684C34F812403444A4B20EEB6C
:1043E000441404EB0108645C1C7098F801405C7094
:1043F000AFB139F81C4093F800803C44A4B20EEBF6
:10440000441404EB010B645C48EA040883F8008060
:104410009BF8014093F8018044EA08045C70B0B155
:10442000564C93F8008034F815400444A4B20EEBC7
:10443000441404EB010B645C48EA040883F8008030
:104440009BF8014093F8018044EA08045C70023153
:10445000202903F10203BCD1DFF840914FF000089E
:104460004F46474D474C2B88474E1B0123803388CE
:104470001AF81800DB00A9F80030FFF749FE23887E
:1044800008F101080133B8F1100F2380EFD14FF08C
:1044900000082B88DFF808911B012380338819F866
:1044A00018000133DB003B80FFF732FE238808F160
:1044B00001080133B8F1100F2380EFD13388334A5C
:1044C000023312889BB29A4233800AD800232A888A
:1044D0002F4933800988531C9BB2994298BF1346D9
:1044E0002B80BDE8F88F00287FF46BAF042269E7CA
:1044F000002267E7022265E7032263E7012261E702
:104500008446142BF4D801A252F823F0F144000899
:10451000F1440008F1440008F1440008F1440008A7
:10452000F1440008F1440008F1440008FD4400088B
:10453000F9440008F9440008F9440008FD44000863
:10454000F5440008ED440008ED440008ED4400087F
:10455000F5440008FD440008F9440008F14400084F
:104560004FF0010CCDE705222CE700BF1A13002005
:104570005EEB000822140020BE180108D6180108BE
:10458000521400204E140020421400201E1400205B
:104590004C140020BEEB0008CE1801084414002083
:1045A0002314002070B5054603F020FE0024C6B297
:1045B000B44200D370BD2A572346002A285D04DB8D
:1045C000FFF720FE0134E4B2F2E72B445B780134BC
:1045D00043EA0020E4B2FFF793FEF3E7104B70B517
:1045E0001880104B10461546198003F0FFFD00247B
:1045F000C6B2B44200D370BD2A572346002A285DB4
:1046000004DBFFF7FFFD0134E4B2F2E72B445B78F3
:10461000013443EA0020E4B2FFF772FEF3E700BF83
:1046200042140020521400200CB413B50A4C04AA02
:1046300052F8043B2080094C094801920180194638
:10464000204603F015FE2046FFF7ACFF02B0BDE8A0
:10465000104002B0704700BF421400201E1300201B
:1046600052140020024A136843F01003136070478D
:104670000004014070B50025082301212E46094A97
:10468000094C10F0800F03F1FF3314BF1160156067
:10469000400013F0FF032660C0B22160F1D1116029
:1046A00070BD00BF9C01214294012142F8B5002455
:1046B0000E4D0F4E2C603460FFF7DCFF01221023FB
:1046C000204621462A602C600A4C29602A6027680F
:1046D000400080B20FB1013080B2013B13F0FF0304
:1046E000F3D1012300093360F8BD00BF94012142DA
:1046F00098012242180121422DE9F04188B06C4610
:104700000646A0460F2527463046FFF7CFFF013D5E
:10471000ADB228F8020B002DF6D1012213462188F4
:1047200037F81300814284BF208027F8131001332B
:1047300099B20F29F3D101320F2A04F10204EDD10D
:10474000BDF80A30BDF80C20BDF80E001344034438
:10475000BDF810000344BDF81200034405209BB2CD
:10476000B3FBF0F008B0BDE8F08170B50646D0208C
:104770000D46FFF7C1FF04469020FFF7BDFF632CF5
:1047800005D9632803D934802880012070BD00201A
:10479000FCE773B506460D4668460DF10201FFF7CA
:1047A000E4FF10B9002002B070BD0DF1060101A8B0
:1047B000FFF7DBFF0028F5D0BDF80410BDF800209E
:1047C000914205D801F13103934205DA9142E9D1D2
:1047D00002F131038B42E5DBBDF80640BDF8023043
:1047E0009C4205D804F13100984205DA9C42D9D1A7
:1047F00003F13100A042D5DB0A44234452105B1080
:10480000328001202B80CEE708B1FFF72BBF034A8F
:10481000136823F010031360704700BF00040140C9
:1048200030B5234C87B0204610230322202102F00C
:10483000C9FE204D204610230322802102F0C2FE33
:10484000204648230322402102F0BCFE28461023C4
:104850000322402102F0B6FE2846482303221021FD
:1048600002F0B0FE0322482320464FF4807102F08C
:10487000A9FE11490124881EFFF777FF04210220B9
:1048800002F024FF102303934FF4406303A8ADF814
:104890001030059402F07EFD0A23ADF804300023A9
:1048A00001A88DF80630029402F0EAFB07B030BD93
:1048B00000080140001001405E14002010B51020D7
:1048C00002F0A6FD78B1084C102002F0AFFD23786D
:1048D0004BB101214FF40060FDF78EFC0122034B28
:1048E0001A700023237010BD561400206814002095
:1048F000F8B5224F06463A780D46012A23D1002109
:104900004FF400601E4CFDF777FC0020FFF77CFFA2
:104910002146A01EFFF73DFF58B1218834F8022C34
:1049200024F8041C24F8062C3280A31F34F8043C1D
:104930002B80144B1B6833B1002310203B7002F016
:1049400061FDFFF78FFE10490B7803F0FF0053B9AC
:104950000E4A13780133DBB213701378012B82BF38
:10496000012310700B700A4B1B682BB9094B188878
:10497000BDE8F840FEF7F4BBF8BD00BF68140020A6
:104980005E140020100122425614002069140020F9
:10499000200121421C13002008B538B901F00CF9A0
:1049A000022802D0003818BF012008BD0120FCE712
:1049B000003818BF0120704710B5044610461A464B
:1049C0005CB953B1012B05D101F0F4F9003818BFDF
:1049D000012010BD01F068FAF8E70420F9E710B5EE
:1049E000044610461A465CB953B1012B05D101F0BB
:1049F000FDF9003818BF012010BD01F087FAF8E773
:104A00000420F9E70020704701380A44914200D1A0
:104A1000704711F8013B00F8013FF7E7034610B576
:104A20000244934206D013F8010B11F8014B001B0E
:104A3000F7D010BD0020FCE7036A0239023B8B422D
:104A400083BF8378C06A01FB0300002070470269BE
:104A5000F0B501F10903002A41D0426901F11106C4
:104A6000147B551E04F0080715F8010F20280ED0FE
:104A7000052808BFE52037B1A0F1410CBCF1190FA2
:104A80009CBF2030C0B203F8010BB342ECD1107AC6
:104A9000202816D01D462E20D61D05F8040B013304
:104AA00004F0100416F8010F20280AD02CB1A0F150
:104AB0004107192F9CBF2030C0B203F8010B9D4263
:104AC000F0D1D07A0872D0690860547E107E40EA36
:104AD00004208880D07D927D42EA0022CA80002294
:104AE0001A70F0BD08B560B1037853B1C3888B422A
:104AF00007D14078FFF75CFF10F0010018BF0320DA
:104B000008BD0920FCE7000038B50A46054600F15B
:104B1000340101234078FFF74FFF0446E0B995F8D0
:104B2000332295F8323243EA02234AF65522934261
:104B300014D103220B4905F16A00FFF76FFF48B15A
:104B40000322084905F18600FFF768FF40B995F890
:104B50005C40E409204638BD0324FBE70224F9E762
:104B60000124F7E7F1180108F8B5036815461E7827
:104B7000303E092E1BD85A783A2A18D102330360E6
:104B8000002E40F0C980684B1C680C60002C00F0BF
:104B9000C580237873B16078FFF70AFFC10709D495
:104BA0001DB110F0040500D00A252846F8BD5F4B62
:104BB0001E78E5E700202080FFF7EEFEC20700F137
:104BC000AF800DB14307EFD400212046FFF79CFFD3
:104BD000012805460BD194F8F6310BB90D25E4E711
:104BE000D4F8FA6120463146FFF78EFF0546032DC3
:104BF00000F09880002DF1D194F8402094F83F30D7
:104C000043EA0223B3F5007FE8D194F84B3094F8DF
:104C10004A0094F8422050EA032008BFA06D94F89F
:104C20004430E061E370584394F8433094F8461000
:104C300042EA032294F8453094F848E043EA01231D
:104C400094F84710238151EA0E2108BF616D4FEAA5
:104C5000131E02EB131394F841700344CB1AB3FBF9
:104C6000F7F302EB060C40F6F67202339342C4F8F7
:104C700024C0A770236249D94FF6F672934249D9EE
:104C80000327236EA3620CEB0E0318444FF0FF338F
:104C900023610023032FE06223712CD194F8642058
:104CA000A37294F86530607842EA0322324401230B
:104CB000626104F13401FFF77FFEE0B994F833221A
:104CC00094F8323243EA02234AF65522934212D133
:104CD000626B174B9A420ED103F1FF53D4F818229E
:104CE00003F5005320339A4201BFD4F82032E36029
:104CF000D4F81C32236100230E4A2363A361138876
:104D0000277001339BB21380E3804EE701270CEB41
:104D10000003B7E70227FAE70B2546E70C2544E72F
:104D2000032542E7012540E7980A0020960A002063
:104D3000525261419C0A00202DE9F041066B044665
:104D40008E420D4602D10020BDE8F08103795BB9A7
:104D5000002DF8D001232A46607804F13401FFF7D2
:104D60002BFE50B92563EFE700F1340801233246EA
:104D700041464078FFF733FE08B10120E4E7636A5B
:104D8000E26920711344B342E2D9E778012FDFD9F9
:104D9000E36941461E44324601236078013FFFF734
:104DA0001EFEFFB2F2E701292DE9F04106460D464D
:104DB0005CD9036A8B4259D90378D0F82480022B3E
:104DC00028D0032B37D0012B06D101EB510708EB7C
:104DD0005721FFF7B1FF10B14FF0FF3018E0C7F3D4
:104DE000080301373344304608EB572193F8344029
:104DF000FFF7A2FF0028EFD1C7F308073E4496F85B
:104E00003400EB0744EA00204CBF0009C0F30B005C
:104E1000BDE8F08108EB1121FFF78EFF0028DBD100
:104E20006D0005F4FF752E4496F8353096F8340081
:104E300040EA0320ECE708EBD111FFF77DFF0028E3
:104E4000CAD1AD0005F4FE7505F1340333449878FA
:104E5000DA780004354440EA026095F834205B7843
:104E6000104340EA032020F07040D1E70120CFE753
:104E700070B50C46C18081680546012901D1022028
:104E800070BD03681A6A8A42F9D9B1B91A78032A3F
:104E900001D1996A89B90022EA601A89A242EED941
:104EA0009B6A03EB14132B612B6804F00F0434335B
:104EB00003EB441400206C61E2E79E783601B442B3
:104EC000286806D2E960FFF7B7FD00EB14102861EF
:104ED000EAE7FFF768FF431C014608D00128CED956
:104EE0002B681B6A8342CAD9A41BA4B2E7E701203E
:104EF000C6E701292DE9F04106460C4615466AD958
:104F0000036A8B4267D90378D0F82480022B39D00A
:104F1000032B48D0012B5CD101EB510708EB572143
:104F2000FFF70AFF10BBC7F3080314F00104334472
:104F300017BF93F83420EAB202F00F012A011CBF18
:104F400002F0F0020A4383F834200123013730468F
:104F5000337108EB5721FFF7EFFE38B9C7F30807A5
:104F600037443CB1C5F3071587F83450012333713A
:104F7000BDE8F08197F83430C5F3032523F00F0323
:104F80001D43F1E708EB1121FFF7D6FE0028EDD114
:104F9000640004F4FF74344484F83450C5F30725E6
:104FA00084F83550E2E708EBD111FFF7C5FE002881
:104FB000DCD1A40004F4FE743319343483F8345083
:104FC0003444C5F3072363702B0C2D0EA370E570DA
:104FD000CCE70220CAE70220CAE72DE9F0410546E6
:104FE0000F46D0F8208061B9C668BEB1B04598BF01
:104FF000012634460134A04513D8012E10D80024D0
:1050000005E0FFF7D0FE0128044603D8012420461E
:10501000BDE8F0818045FAD83E46EAE70126E8E798
:10502000022421462846FFF7BEFE48B1411C02D1AA
:105030004FF0FF34EBE70128E8D0B442DAD1DEE7E5
:105040006FF0704221462846FFF753FF0028EFD14A
:1050500047B92B69EC605A1CD9D0013B2B61012365
:10506000AB72D4E7224639462846FFF742FF0028B4
:10507000EFD0DDE72DE9F843C68804460136B6B225
:10508000894616B90420BDE8F8830369002BF9D0DE
:1050900016F00F0807D1E16801330068236151B9A8
:1050A0000389B342EED923680020343303EB48135D
:1050B000E6806361E7E78778013F17EA1617F2D1C8
:1050C000FFF771FE0128054601D80220DBE7421CEC
:1050D00001D10120D7E72068036AAB4229D8B9F192
:1050E000000FCFD0E168FFF778FF0546002837D0E2
:1050F0000128EAD0431CECD000212068FFF71CFEF9
:105100000028E6D1236803F1340203F50D739342BE
:1051100016D1226829461046FFF78EFC4FF0010990
:1051200010632068FAB2837893420CD8036B9B1A01
:10513000036329462068E560FFF77EFC2061B2E743
:1051400002F8010BE3E7002180F80490FFF7F4FD7B
:1051500001370028BDD12268136B01331363E0E7E8
:10516000072090E710B504460420216909B960B111
:1051700013E02068FFF7E0FD78B963691A787AB127
:10518000E52A04D0DB7A1B0701D4002010BD0021E2
:105190002046FFF76FFF0028E7D000232361F5E7E3
:1051A0000420FAE70129F8B505460C4622D9036A1E
:1051B0008B421FD9012721462846FFF7F4FD2646DA
:1051C000044608B90020F8BD012813D0411C13D0B3
:1051D000002231462846FFF78CFE0028F3D12B69C8
:1051E0005A1C1CBF01332B612B6A18BFAF729C4243
:1051F000E1D3E7E70220E6E70120E4E770B500210C
:105200000646FFF735FE044660BB31693068FFF79C
:1052100093FD044630BB73691B78E52B08D03BB186
:1052200001213046FFF726FFEDE703F8011B0AE0F6
:1052300031693068FFF780FD044698B975692146E9
:105240002B4605F120029A42EFD10B222846B16984
:10525000FFF7DAFB0122B369DB7A03F018032B7343
:1052600033681A71204670BD2DE9F0410B7806466F
:105270002F2B0D4601D05C2B42D100230135B360AA
:105280002B781F2B3FD92027B069034600F10B0272
:10529000934242D12B782E2B4CD103706B782E2B5E
:1052A0003ED14370AB782E2B00F0E78003222F2BEA
:1052B00038D120231544C37200213046FFF7D8FDB2
:1052C0000446002840F08F8031693068FFF734FDD4
:1052D0000446002840F0878070690378002B00F0B6
:1052E0008180C47A14F0080405D10B22B169FFF75C
:1052F00095FB002877D000213046FFF7BBFEDFE7A3
:1053000003689B69BBE700213046FFF7B1FD00232E
:10531000044673612046BDE8F08103F8017BB7E7DE
:105320000222C4E75C2BC4D01F2B00F2A6802423EA
:105330001544C0E7002108248C460B4679E015F897
:1053400008800CF1020C28F0200EAEF1410EBEF1E7
:10535000190F07D908F17F0E5FFA8EFEBEF17D0F9F
:1053600000F28B8004F1FF3E714580F2868001F1EE
:10537000010E425400F80E800231E04658E0A2F1DE
:10538000410CBCF1190F04D843F00203425401311F
:105390004EE0A2F1610CBCF1190F9EBF203A43F020
:1053A0000103D2B2F2E7202A34BF0422002245448E
:1053B000002962D00178E52904BF05210170082C7D
:1053C00009D19B00DBB203F00C03042B08BF42F0B1
:1053D0000802C27270E703F00301012908BF42F01E
:1053E0001002F0E70424B369DB7A03F004032CB164
:1053F000042C8FD1002B08BF05248BE7002B89D10B
:105400007269D37ADB060BD5137D517DD07E43EADA
:105410000121937E43EA002343EA0143B36033E76B
:10542000052477E7082C28D121460B249B00DBB20A
:10543000C44615F80C200CF101081F2AB3D92F2AF5
:10544000B1D05C2AAFD02E2AECD08C4215DD02F10F
:105450007F0E12F0800F5FFA8EFE18BF43F0030339
:10546000BEF17D0F7FF66BAFDFF814E01EF801CBC5
:10547000BCF1000F83D06245F8D106244AE700BF93
:10548000E618010840B9054B1A6802B1107009B15D
:1054900000220A70196070470B207047980A00209C
:1054A00000232DE9F0418CB00446174601910360BA
:1054B00002F01E0205A901A8FFF756FB002875D1CE
:1054C00002AB019905A80B93FFF7CEFE17F01C0F56
:1054D00007F01F066DD0002838D0042866D105A833
:1054E000FFF78CFE002861D10A9D46F008063007C0
:1054F00010D50023EB72FFF785FA0122C0F30723D2
:10550000EB73030C2B74059BA873000E687446F0B4
:1055100020061A71059A136BA671E3610A9B236238
:105520002B7D697DE87E43EA0121AB7E43EA0023BF
:1055300043EA01432361EB690020E360FF23E37149
:10554000D388A060A0612260A3802FE07B073DD4B8
:105550000A9D002D38D0EB7A13F0110334D13F07A8
:10556000C5D56F7D297DEA7E2B756B75EB762B7724
:105570006B77AB77EB7741EA0721AF7EAB76012300
:10558000059847EA022757EA0147D0F830800371AF
:1055900006D03946FFF706FE40B9059B013FDF60A4
:1055A00041460598FFF7C8FB0028A0D00CB0BDE825
:1055B000F0810028FAD10A9D55B1EB7AD90607D4BB
:1055C000BA07A7D5DB07A5D50720EFE70820EDE749
:1055D0000420EBE72DE9F04F85B002930023154638
:1055E000029A04468946136081880068FFF77AFAB8
:1055F0000646002858D194F90620A379002A21DB19
:1056000013F00103019300F0A180D4E90227BF1A2F
:10561000AF4228BF2F4604F1240B002F44D0A368CB
:10562000C3F30802002A40F082802068E179827882
:10563000914214D343B92069012809D8A37963F0B2
:105640007F03A37102262FE06169FFF7ACFBF3E74C
:10565000411C01D1A37923E000236061E371D4F8F8
:1056600000A061695046FFF7E7F90028E6D0E3792A
:10567000B7F5007F00EB030838D39AF8022003EB5C
:10568000572191424FEA572588BFD51AEBB24246BF
:1056900049469AF801000393FFF78EF9A37938B1D0
:1056A00063F07F03019EA371304605B0BDE8F08F23
:1056B0005A060BD5A069A0EB0800854206D94FF425
:1056C0000072594609EB4020FFF79EF9E379039AEF
:1056D0006D021A44E271A368029A2B44A360029BF4
:1056E000A9441B687F1B2B44136096E7A3795B06D4
:1056F0000CD501235946A2699AF80100FFF76FF90A
:10570000A3790028CCD123F04003A371A369984565
:1057100008D020680123424659464078FFF74CF9EB
:10572000002897D1E379C4F818800133E371A168A8
:105730004846C1F30801C1F50075BD4228BF3D468A
:1057400024312A462144FFF75FF9C4E70726ABE777
:1057500000B58DB00190002205A901A8FFF704FA59
:1057600050B902AB019905A80B93FFF77DFDB0B9C5
:105770000A9B23B9059B98610DB05DF804FBDA7AAA
:10578000D20610D5597D1A7D42EA0122D97E9B7E30
:1057900043EA012343EA0243059A9361ECE70428B4
:1057A00008BF0520E8E70520E6E7F8B504460D4602
:1057B00081880068FFF796F90646002849D194F9D8
:1057C0000630A279002B51DBE368AB4203D212F022
:1057D000020F08BF1D460022A368A260FF22E271EB
:1057E0004DB9D4E90232934233D9E360A37943F04F
:1057F0002003A3712DE0206887787F025BB3013B13
:105800006A1EB2FBF7F2B3FBF7F18A4223D37A4266
:1058100013406169A360ED1A00294AD10025A368ED
:10582000C3F30803002BDCD0A269AA42D9D0A37924
:1058300004F124075B0655D52068012339464078DA
:10584000FFF7CDF8A379002849D0012663F07F0344
:10585000A3713046F8BD216979B9FFF7BEFB012875
:10586000014605D1A37963F07F03A3710226F0E717
:10587000421C01D1A379E8E720616161CCE7A379FB
:1058800020689B0705D5FFF7A8FB014620B93D46D8
:1058900011E0FFF788FA01464A1CEBD00129E1D953
:1058A00023681B6A8B42DDD9A36861613B44A36016
:1058B000ED1BBD42E3D8A368C5F347222B446F0A12
:1058C000C5F30805A360E271002DA7D02068FFF79B
:1058D000B3F80028C6D001323D18E2719FE723F0EB
:1058E0004003A371206801232A4639464078FFF718
:1058F00063F80028BED1A56173E710B586B00446F1
:1059000001910022014601A8FFF72EF960B903AB0F
:1059100020460199A361FFF7A7FCC8B9636983B169
:10592000DA7AD20602D4052006B010BD597D1A7D60
:1059300042EA0122D97E9B7E43EA012343EA0243E5
:10594000A36023680021DB882046A380FFF790FA3C
:105950000428E9D1E7E77FB505460E46818800684F
:10596000FFF7C0F80446D0B901ABAB612EB90146D0
:105970002846FFF77DFA044611E02846FFF7F2FBC0
:1059800004280FD12C6131462846FFF760F800212A
:105990002846FFF76FFB0428EDD100232B6120463A
:1059A00004B070BD0028E6D1EDE7000010B5274C2B
:1059B00086B001214FF4804001F002FC20461823FC
:1059C00003224FF4807101F0FDFDE368A4F58064CB
:1059D00023F48073C4F80C340322204618234FF4B8
:1059E000005101F0EFFD2046482303224FF480418F
:1059F00001F0E8FD2046182303224FF4004101F096
:105A0000E1FD2046102303224FF4805101F0DAFD1E
:105A1000E3684FF0827243F48053E3604FF4003345
:105A2000CDE9012308230A49A4F55444CDE9031321
:105A30000723204601A9ADF8143001F07FFE0121B3
:105A4000204601F09AFE06B010BD00BF00100140D4
:105A5000010000027FB54FF082724FF40033CDE9B0
:105A600001230A4B002803930CBF38230823ADF809
:105A700010300023ADF812300723054801A9ADF816
:105A8000143001F05BFE07B05DF804FB010000027A
:105A90000038004038B504460B4D0221284601F07D
:105AA0007DFE0028F9D02146074801F072FE064C21
:105AB0000121204601F072FE0028F9D0024801F0D1
:105AC0006AFEC0B238BD00BF0038004010B54FF6C6
:105AD000FE74013CFF20A4B2FFF7DCFF1CB1FF28DD
:105AE000F7D1002010BD0120FCE7000070B506468C
:105AF0000C461546FF20FFF7CDFF174A46F0400041
:105B0000D36823F48053D360FFF7C4FF200EFFF760
:105B1000C1FFC4F30740FFF7BDFFC4F30720FFF741
:105B2000B9FFE0B2FFF7B6FF2846FFF7B3FFC9247D
:105B3000FF20FFF7AFFFFF28054603D1013C14F01B
:105B4000FF04F5D1044AFF20D36843F48053D360A7
:105B5000FFF7A0FF284670BD000C014070B5064657
:105B60000C461546FF20FFF795FF124A46F040000D
:105B7000D36823F48053D360FFF78CFF200EFFF728
:105B800089FFC4F30740FFF785FFC4F30720FFF741
:105B900081FFE0B2FFF77EFF2846FFF77BFFC924B5
:105BA000FF20FFF777FFFF2803D1013C14F0FF042B
:105BB000F6D170BD000C0140F8B50020FFF74AFF98
:105BC0000A25013DFF20ADB2FFF764FF002DF8D19B
:105BD0002C46002195220846FFF788FF0134012852
:105BE0000646A4B204D0C82CF3D101242046F8BD47
:105BF000C82CFAD087224FF4D5710820FFF7AEFFEA
:105C0000052804463FD14D4F4D4A3E70D368FF20D2
:105C100043F48053D360FFF73DFF00260022372076
:105C20001146FFF763FF01280446DFD10022292037
:105C30001146FFF75BFF0136B6B270B1B6F5C87F0B
:105C4000ECD1002201201146FFF750FF0135ADB223
:105C5000A0B1B5F5C87FF4D1C7E7B6F5C87FF0D0DD
:105C60000120FFF7F7FEFF20FFF714FFBDE8F84023
:105C7000FF224FF400711020FFF738BFB5F5C87F41
:105C8000B3D03870ECE70128B0D1FF20FFF702FF56
:105C9000FF20FFF7FFFEFF20FFF7FCFE0546FF2079
:105CA000FFF7F8FE264A0446D368FF2043F48053EA
:105CB000D360FFF7EFFE012D97D1AA2C95D1C9250E
:105CC000002237201146FFF711FF012804468DD12D
:105CD00000224FF080412920FFF708FF013DADB2BF
:105CE0000446002D82D00028EAD1024601463A201F
:105CF000FFF734FF044600287FF478AFFF20FFF75A
:105D0000C9FE0546FF20FFF7C5FEFF20FFF7C2FED4
:105D1000FF20FFF7BFFE0A4AFF20D36843F48053F9
:105D2000D360FFF7B7FE15F0400F14BF0422022224
:105D3000024B01201A70FFF78DFE57E79E0A0020E4
:105D4000000C0140F8B504460D4640F2D1761746E6
:105D5000174AD36823F48053D360013EFF20B6B2C4
:105D6000FFF798FE36B90120114AD36843F48053F7
:105D7000D360F8BDFE28F0D12544A5424FF0FF00C6
:105D800010D1FFF787FEFF20FFF784FE012F07D118
:105D9000074AFF20D36843F48053D360FFF77AFEAD
:105DA0000020E6E7FFF776FE04F8010BE5E700BF09
:105DB000000C014038B5044601200D46FFF74AFEAD
:105DC000094B00221B781120042B18BF64022146C6
:105DD000FFF78CFE38B92846BDE8384001224FF461
:105DE0000071FFF7AFBF38BD9E0A002070B50446B2
:105DF00001200D46FFF72EFE294B00221B781820AC
:105E0000042B18BF64022146FFF770FE044658BBFE
:105E1000244AFF20D36805F5007623F48053D3602D
:105E2000FFF738FEFF20FFF735FEFF20FFF732FEB9
:105E3000FE20FFF72FFE15F8010BFFF72BFEB542F2
:105E4000F9D1FF20FFF726FEFF20FFF723FEFF20FA
:105E5000FFF720FE00F01F03052B11D00446114A66
:105E6000D36843F48053D360204670BD013DADB28A
:105E700045B90C4A0124D36843F48053D360F3E757
:105E80004FF6FF75FF20FFF705FE0028EED0054A0C
:105E9000FF20D36843F48053D360FFF7FBFDE3E7B3
:105EA0009E0A0020000C014070B5064601200D46F8
:105EB0001446FFF7CFFD134B00221B781220042B52
:105EC00018BF76023146FFF711FED0B900224FF419
:105ED00000712846FFF736FF28B9013C14F0FF0493
:105EE00005F50075F2D100220C201146FFF7FEFDEA
:105EF000054AFF20D36843F48053D360FFF7CAFDFF
:105F0000204670BD9E0A0020000C014070B5064678
:105F100001200D461446FFF79DFD2D4B1B78042BE9
:105F200001D0760223B1002221461720FFF7DEFDC3
:105F3000002231461920FFF7D9FD48BB254AFF2032
:105F4000D36805F5007523F48053D360FFF7A2FDF5
:105F5000FF20FFF79FFDFC20A5F50076FFF79AFDD7
:105F600016F8010BFFF796FDAE42F9D1FF20FFF7BF
:105F700091FDFF20FFF78EFDFF20FFF78BFD00F066
:105F80001F03052B05D0134AD36843F48053D36015
:105F900070BDFFF79BFD0128F5D0013C14F0FF0414
:105FA00006F50075D7D1FD20FFF774FD002808BF66
:105FB000FE24FFF78BFD00B1FEE7064AFF20D36801
:105FC00043F48053D360FFF765FD2046E0E700BF50
:105FD0009E0A0020000C0140FCF704B908B514200B
:105FE000FCF700F9FF20FFF755FD084BDA6842F493
:105FF0000062DA60DA6842F48062DA609A68120756
:10600000FCD5BDE808401420FCF7ECB800100140B6
:1060100070B506460D46124CA3681B07FCD5002040
:10602000FFF718FDE368022043F40063E360E368D0
:1060300023F48063E360FFF72DFD3046FFF72AFD70
:10604000280AFFF727FDE8B2FFF724FDE3680120E7
:1060500043F48063E360BDE87040FFF7FBBC00BF22
:106060000010014008B500210420FFF7D1FFBDE872
:10607000084000210420FFF7CBBF000010B542F21A
:1060800020010B20FFF7C4FF4FF402610020FFF74F
:10609000BFFF484CA3681B07FCD5E368532023F4DB
:1060A0000063E360FFF7F6FCEF20FFF7F3FC6E20E0
:1060B000FFF7F0FC2420FFF7EDFC0020FFF7EAFCDF
:1060C0000020FFF7E7FC0020FFF7E4FC0020FFF7CB
:1060D000E1FC6420FCF786F8E368452043F40063A4
:1060E000E360E36823F40063E360FFF7D3FC782008
:1060F000FFF7D0FC6920FFF7CDFC7420FFF7CAFC46
:106100000020FFF7C7FC0020FFF7C4FC0020FFF7CA
:10611000C1FC0020FFF7BEFC6420FCF763F8E368D5
:10612000532043F40063E360E36823F40063E36017
:10613000FFF7B0FCEF20FFF7ADFC6E20FFF7AAFCE5
:106140004420FFF7A7FC0020FFF7A4FC0020FFF786
:10615000A1FC0020FFF79EFC0020FFF79BFC6420C1
:10616000FCF740F8E368452043F40063E360E3682C
:1061700023F40063E360FFF78DFC7820FFF78AFCCF
:106180006920FFF787FC7420FFF784FC0020FFF7ED
:1061900081FC0020FFF77EFC0020FFF77BFC002045
:1061A000FFF778FC6420FCF71DF8E36843F4006314
:1061B000E36010BD0010014038B50446144DAB68D3
:1061C0001B07FCD50020FFF745FCEB68032043F4D8
:1061D0000063EB60EB6823F48063EB60FFF75AFC2D
:1061E0002046FFF757FCFF20FFF754FC0402FF2076
:1061F000FFF750FCEB6804F47F4443F480630443EE
:10620000A4B20120EB60FFF725FC204638BD00BF9B
:1062100000100140304B70B51C469A681207FCD53F
:10622000FF20FFF737FC652540F604060020FFF746
:10623000C3FFB0420BD040F604010020FFF7E8FE98
:10624000013D0220FBF7CEFF15F0FF05EED1A3685C
:106250001B07FCD565250320FFF7AEFFB0F5184FEF
:1062600008D04FF418410320013DFFF7D1FE15F08F
:10627000FF05F0D165254BF681360520FFF79CFF21
:10628000B04208D04BF681310520013DFFF7C0FE3A
:1062900015F0FF05F1D142F220010B20FFF7B8FE07
:1062A000FFF7E0FEE368FF2023F40063E360FFF7FD
:1062B000F1FBFF20FFF7EEFBFF20FFF7EBFBFF20DA
:1062C000FFF7E8FBE368142043F40063E360BDE8F4
:1062D0007040FBF787BF00BF0010014010B50820D9
:1062E000FFF76AFF04460920FFF766FF45F24D738A
:1062F000984209D047F26563984220D044F654533F
:10630000984210D101200DE019206400B4FBF0F494
:106310000A22B4FBF2F302FB1344052C98B201D914
:10632000013080B210BDC0F3C103DA1E53425341A5
:106330001B0103EB1430034B33F81000F2E700208D
:10634000F0E700BFB61C010870B50920FFF734FF65
:10635000C0F3C7060820FFF72FFF0546FFF7BEFF73
:10636000424CB307208016D506F00306022E12D049
:10637000032EC5F3073327D1023B0C2B0BD8DFE8E4
:1063800003F05155595D61656907710B15191E00C0
:1063900008B98023238070BD05210220344AFEF70E
:1063A00043F92388002BF6D1C023F3E70028F2D16C
:1063B000E023EFE70028EED14FF48073EAE70028EE
:1063C000E9D14FF4A073E5E7013B0D2BE3D801A21F
:1063D00052F823F00D640008156400081D640008DD
:1063E00097630008256400082D64000835640008E0
:1063F0003D640008456400084D64000855640008C9
:10640000976300085D640008656400080028C2D135
:106410000823BFE70028BED11023BBE70028BAD16C
:106420001823B7E70028B6D12823B3E70028B2D154
:106430003023AFE70028AED13823ABE70028AAD13C
:106440004023A7E70028A6D15023A3E70028A2D124
:1064500060239FE700289ED170239BE700289AD1F4
:10646000902397E7002896D1A02393E70A00002005
:10647000F51801080420FFF79FBE000070B540F238
:10648000AF34084D084E013C36F8021B15F8010BDD
:10649000A4B2FFF7BDFD002CF5D10A20BDE8704085
:1064A000FBF7A0BE07190108F61C010810B50D4A3C
:1064B00004231179C943C9B201EB01218CB2002137
:1064C00012F8010B013B00EB011113F0FF0389B23D
:1064D000F6D10220FFF79CFD2146BDE810400B20BD
:1064E000FFF796BD0400002000EB002081B20B20D6
:1064F000FFF78EBD10B50F4C48230322082120461C
:1065000001F060F8102303224FF48061204601F06F
:1065100059F8102303224FF40061204601F052F88D
:10652000E36843F40063E360E36843F48063E3609B
:1065300010BD00BF0010014070B505460B4C00F1C6
:106540002006E36823F40063E360B54208D1E36802
:1065500043F40063E360E36843F48063E36070BD89
:1065600015F8010BFFF796FAEFE700BF00100140A6
:10657000092802D83030C0B27047A0F10A03052BB9
:1065800001D83730F7E70020704700004FF6FF735F
:106590002DE9F043774E054632880C469A4289B081
:1065A00005D10022744B1A80FFF798FE3080002C32
:1065B00000F0D080204606F095F90746284606F000
:1065C00091F94FF07E59394606F098FA49468046CF
:1065D00006F09CFB694D002840F0AC80C5F80080B7
:1065E0003388002B00F0A980B4FBF3F37D20B3FBCC
:1065F000F0F080B206F07AF9296806F0CBF906F0DF
:106600008FFB80B2DFF87081B8F80030834200F071
:10661000A180308806F06AF90146384606F06EFA25
:10662000574906F06BFA296806F0B4F906F078FBD2
:1066300040F60F6380B29842A8F800004FF03C0289
:1066400028BF18464FF41673B0FBF2F102FB11029B
:10665000B0FBF3F0C0B292B20A27FFF789FF8DF8C2
:106660000000B1FBF7F007FB1010C0B2FFF780FF8E
:10667000B2FBF7F13A238DF80100C8B28DF8023071
:10668000FFF776FF8DF8030007FB1120C0B2FFF77C
:106690006FFF2F233B4D8DF8040095F800808DF897
:1066A0000530B8F1000F4BD03088002855D13C227E
:1066B0004FF41673B0FBF2F102FB1102B0FBF3F0E2
:1066C000C0B292B2FFF754FF4FF00A0889B20646F3
:1066D0008DF80600B1FBF8F008FB1010C0B2FFF710
:1066E00047FFB2FBF8F73A2304468DF80700F8B2EB
:1066F0008DF80830FFF73CFF01468DF8090008FBD4
:106700001720C0B2FFF734FF00271F4B8DF80A0097
:1067100083F84A1083F84B0008210F200DF1060280
:106720008DF80B7083F8476083F84840FDF756FFFB
:106730002F700FE0C5F8009052E7FFF79BFE61E76E
:106740006A46082109208DF80680FDF747FF2B785F
:10675000002BA9D109B0BDE8F083B4FBF0F07D2493
:10676000B0FBF4F040F60F6180B2884228BF0846C3
:106770009DE700BF0A000020A40A0020A80A00200C
:106780000000FA42D83F00206C1400202DE9F047A9
:1067900030493148FFF7B1F8304B044618700028F3
:1067A0004FD000242046BDE8F0872D4801F01EFDA3
:1067B000DFF8B8A0C61E3E443046DAF8001001F0FB
:1067C00095FC88B13046DAF8041001F08FFC58B11E
:1067D0003046DAF8081001F089FC28B13046DAF8C2
:1067E0000C1001F083FC90B90134E4B2012C4FF09D
:1067F000A00017D101F094F81A4B05461860002844
:10680000CFD0394601F094FC0023C5E92633484631
:106810001549FFF7A0F80028C4D198F80930002BDB
:10682000C3D1BFE701F07CF806460028B9D039464D
:1068300001F07EFC0023C6E92635C5F89860354690
:10684000E5E7DFF824800546DFF80C9008F109073A
:10685000DDE700BF54240108DC140020D93F0020EC
:10686000051500202C180020FC1400200C0000202E
:10687000002110B50846A0B0474AFDF7D5FE01211A
:106880000020454AFDF7D0FE02210020424AFDF7D4
:10689000CBFE03210020414AFDF7C6FE0421002063
:1068A0003E4AFDF7C1FE052100203C4AFDF7BCFE33
:1068B00006210020394AFDF7B7FE07210020374A9C
:1068C000FDF7B2FE08210020344AFDF7ADFE092194
:1068D0000020324AFDF7A8FE0A2100202F4AFDF7CA
:1068E000A3FE0B2100202D4AFDF79EFE0C21002067
:1068F0002A4AFDF799FE0D210020284AFDF794FE53
:10690000274C0E210020254AFDF78EFE234A0F2139
:106910000020FDF789FEE16820468039FEF745FF3B
:10692000204B802269462046FEF754FE9DF8003039
:10693000542B2BD19DF80130412B27D19DF80230EB
:10694000472B23D11E23184A0DF1030111F8010B27
:10695000013B13F0FF0302F8010BF7D11E23134A8A
:106960000DF1210111F8010B013B13F0FF0302F8B7
:10697000010BF7D11E230E4A0DF13F0111F8010B57
:10698000013B13F0FF0302F8010BF7D1002104488B
:10699000FEF70BFF20B010BD5D2401086424010840
:1069A000301800204C1700205317002071170020CA
:1069B0008F17002007B50121084A0846FDF734FE6D
:1069C000074B02211B6807200093064B064A1B88D1
:1069D000FDF72AFE03B05DF804FB00BF6424010844
:1069E0002C1800207E2200208324010837B5224D78
:1069F0004FF47A70FFF7F0FA29884B1E9BB22B8078
:106A0000002937D01D4C2268002A33D05BB91146CB
:106A1000D2F89C202AB903B12160194B1B782B8036
:106A200004E00123F3E7D2F89830236001222168C3
:106A30001448FEF735FD00210122134B1860134B5B
:106A400013481960134B1960134B1A704FF6FF72FD
:106A5000124B1970124B1970124B1A804FF480624E
:106A600001F08AFA23680221009307202B880E4A3E
:106A7000FDF7DAFD03B030BD7E2200202C18002087
:106A8000F81400203018002078220020A00A0020EE
:106A9000541A0020D8140020D83F00207C22002067
:106AA0002A1800200A0000208324010870B51B4C1E
:106AB0001B4E2388327801339BB2511C8B42194DF7
:106AC000238011D12B681A46D3F89830002BFAD1C5
:106AD000D2F89C302B60012323802388013323804C
:106AE000BDE87040FFF782BF934206D02B68D3F811
:106AF0009C30D3F89C302B60EFE700230A4A1370D8
:106B00000A4A1360FFF742FE012230702080296894
:106B10000748FEF7C5FC074B1860DEE77E22002021
:106B2000F81400202C18002048170020A00A00208C
:106B3000301800207822002037B5FEF737FFFFF726
:106B40003BF8FFF7D7FCFFF749FAFFF763FBFFF7C6
:106B500095FC14490020FEF795FCFFF717FE124C38
:106B6000124B134D187020801248FEF7F1FD296872
:106B700001221148FEF794FC104B1860FFF796FCB9
:106B8000FFF77CFAFFF792FF2B68022100930720A2
:106B900023880B4AFDF748FD01220A4B1A7003B007
:106BA00030BD00BF141500207E220020F814002004
:106BB0002C180020542401083018002078220020CE
:106BC00083240108D83F002073B5FFF7B5FF0221E9
:106BD0000020124AFDF728FD114B002105201B78EB
:106BE000104AFDF721FD01240F4D104E2B68610066
:106BF000D3F89C0089B20093234628B904200B4A9D
:106C0000FDF712FD02B070BD32460420FDF70CFD09
:106C10002B680134D3F89C302B60E7E76924010826
:106C2000F81400208F2401082C180020A424010847
:106C3000024BD968024B1868FFF7A8BC3018002037
:106C4000A00A00200A4A136858B10A4903F5005304
:106C5000C9689942D4BF1160136011680548FEF7F6
:106C6000A4BDB3F5005348BF03461360F5E700BF6A
:106C7000D81400203018002000222DE9F341634B86
:106C8000634E644C1A702168F2688A4201D9002A66
:106C90003FD101221A70604A1278002A39D00022AE
:106CA0005E4F1A7039884B1E9BB23B80002930D052
:106CB0005B4D2A68002A2CD0002B40F0A2801146A0
:106CC000D2F89C20002A40F09A8003B12960554BED
:106CD0001B783B80012229684D48FEF7E1FB00212B
:106CE0004FF6FF72504B21601860504B50481960AE
:106CF000504B1A800122504B1A704FF4806201F001
:106D00003BF92B680221009307203B884B4AFDF793
:106D10008BFCF36822684A4D934252D9002B50D025
:106D2000484E3378002B4CD13B4B1B78002B48D07E
:106D30004FF6FF713F4F3888884204D1B2F5806F1B
:106D400001D9FFF701FB404A13889BB243B10023EE
:106D500013804FF6FF733A889A4201D0FFF768FF1D
:106D60003A4B1A7832B100221A70394B188880B227
:106D7000FFF7BAFB2D4F23683A6803F500732360D1
:106D800013442B494FF400723B602148314BFEF70E
:106D900021FC23683A68DFF8908003F500732360D4
:106DA0001344C8F800003B604FF40072294B2A4995
:106DB0001748FEF70FFC012333700023C8F80000CA
:106DC0002B702B781F2B17D81E4C2278A2B1124A99
:106DD00012788AB1214A926812070DD5144800EB47
:106DE0004310FFF7A9FB2B780133DBB21F2B2B706D
:106DF00002D9002323702B7002B0BDE8F08101237B
:106E00005DE7D2F898302B6064E700BF4817002098
:106E100030180020A00A0020EE0A00207E22002068
:106E20002C180020F814002078220020D81400200C
:106E3000541A00200A000020D83F002083240108B3
:106E40002A1800207C220020E80A0020EA0A0020FC
:106E5000020000204C170020541C002000100140AC
:106E6000EFF308800046704708B500F053FD162385
:106E700003604FF0FF3008BD014608B50148FBF73D
:106E800053FFFEE7BD2401080120704770B50C4D8B
:106E9000014604460B48FBF747FF2B680BB90A4B2A
:106EA0002B602E68FFF7DCFF3444844204D9074886
:106EB000FBF73AFF00F026FD30462C6070BD00BFA6
:106EC000AC0A0020DF24010848420020FC2401080D
:106ED00008B5012000F018FC48B1012000F024FCA6
:106EE0000122034B1A70BDE8084000F005BC08BD44
:106EF0000C420020044A054BD16801F4E0610B43C9
:106F0000D360BFF34F8FFEE700ED00E00400FA0509
:106F10000C4B0D4A10B593421C4602D000230B487F
:106F200003E00B4B0B4A002106E0D1188142F8D256
:106F3000E158D1500433F8E7934202D243F8041BDE
:106F4000FAE710BDA027010800000020900A0020E9
:106F5000900A002048420020684620F007018D4634
:106F600008B5FFF7D5FF00F003F8FBF76DFCFEE76F
:106F70003A4B82B01A6842F001021A605968384AE6
:106F80000A405A601A6822F0847222F480321A6031
:106F90001A6822F480221A605A6822F4FE025A60AB
:106FA0004FF41F029A600022009201921A6842F484
:106FB00080321A604FF6FF72196801F400310191B6
:106FC000009901310091019911B900999142F3D1D1
:106FD000224B1B6813F4003318BF01230193019B5C
:106FE000012B05D01F4B4FF000629A6002B0704732
:106FF0001D4B1A6842F010021A601A6822F0030250
:107000001A601A6842F002021A60A3F580535A68A7
:107010005A605A685A605A6842F480625A605A68E4
:1070200022F47C125A605A6842F4E8125A601A68D4
:1070300042F080721A601968084A8901FBD55368CA
:1070400023F003035360536843F002035360536813
:1070500003F00C03082BFAD1C4E700BF0010024074
:107060000000FFF800ED00E00020024040F0BF60AB
:10707000024B40F40030D860704700BF00ED00E0E4
:10708000426810B50378FAB1154A4478D26803F122
:107090006043D243C2F30222C2F1040104FA01F1B7
:1070A0000F2424FA02F2847803F5614322400A4354
:1070B0001201D2B283F8002303780122590903F0A8
:1070C0001F0302FA03F306E05909012203F01F032C
:1070D00002FA03F32031034A42F8213010BD00BF09
:1070E00000ED00E000E100E021F0604121F07F01CF
:1070F000014B08439860704700ED00E0034B5A686D
:1071000022F4404210435860704700BF0010024014
:107110001E4B10B55A6802F00C02042A03D0082A4C
:1071200004D01B4B00E01B4B036010E05A68596809
:10713000C2F38342C90302F1020201D4164B04E0F8
:107140005B689B034CBF154B124B5A4302600F4BBD
:1071500013495A68C2F303128C5C0268E240426031
:107160005C68C4F302240C5D22FA04F484605C6859
:10717000C4F3C224095DCA40C2605B680949C3F315
:107180008133CB5CB2FBF3F2026110BD0010024010
:10719000001BB70000127A00808D5B0000093D00E3
:1071A0002400002020000020044B9A6909B11043FC
:1071B00001E022EA00009861704700BF0010024021
:1071C000044BDA6909B1104301E022EA0000D861FA
:1071D000704700BF00100240044BDA6809B1104349
:1071E00001E022EA0000D860704700BF00100240B2
:1071F00008B5134B984207D14FF400700121FFF7F7
:10720000EBFF4FF4007014E00E4B984207D14FF49F
:1072100080600121FFF7E0FF4FF4806009E00A4B36
:1072200098420BD14FF400400121FFF7D5FF4FF4F6
:1072300000400021BDE80840FFF7CEBF08BD00BFF9
:107240000024014000280140003C014042680B68D6
:1072500022F4702222F480721A434B6810B542EA7D
:1072600003234360CA680B6984681A43084B2340B0
:1072700013438A6843EA420282600B7DC26A013B83
:1072800022F47002DBB242EA0353C36210BD00BFB6
:10729000FDF7F1FF0023036043608360C360036177
:1072A000012303757047836811B143F0010301E0C6
:1072B00023F0010383607047836843F00403836015
:1072C00070478068C0F380007047836823F4E04310
:1072D000194381607047836811B143F4004301E0B2
:1072E00023F4004383607047836811B143F40213B1
:1072F00001E023F4021383607047092970B54FF051
:1073000003040CD9A1F10A056C430725A54003FA33
:1073100004F4C66826EA05052C43C4600AE04C4321
:107320000725A54003FA04F4066926EA050545EA9F
:1073300004030361846B0232C4F30153D31ADBB23A
:10734000052253431F229A40994024EA020444EA4A
:107350000103836370BD836B013923F4401343EA57
:1073600001538363704782B0002301930190019B16
:10737000283319440191019B186880B202B070470C
:10738000036819420CBF002001207047C943016007
:1073900070470000836830B5026801793BB3184B31
:1073A000D4431D6801F1804125401D605D6801F5F1
:1073B00082312C405C600C6822430A6002689C6841
:1073C000D1430C409C60DC682140D9604179102990
:1073D00006D1996811439960D9680A43DA6030BDD3
:1073E00001F1804303F5823319680A4306E001F195
:1073F000804303F58233196821EA02021A6030BD26
:1074000000040140014B5861704700BF0004014077
:10741000054B1A685B69034004D010420CBF002082
:10742000012070471846704700040140014B586125
:10743000704700BF00040140034B044A5A6002F148
:1074400088325A60704700BF002002402301674520
:10745000024B1A6942F080021A6170470020024014
:10746000024BD869C0F34000704700BF00200240C3
:10747000084BDA68D20709D4DA68500708D4DB6809
:1074800013F0100F0CBF0420032070470120704739
:10749000022070470020024008B50146FFF7E8FFD0
:1074A000012806D119B1FFF7E3FF0139F8E70520FC
:1074B00008BD002908BF052008BD000038B5FFF74A
:1074C000CFFF00280CBFA52500254FF43020FFF783
:1074D000E3FF042829D1154C154B4FF43020A3604D
:1074E00003F18833A360236943F0200323612369F8
:1074F00043F040032361FFF7CFFF04280ED1226938
:1075000041F6DF731340236123694FF4005043F0C9
:1075100010032361074B1D80FFF7BEFF052804D031
:10752000226941F6EF731340236138BD0020024009
:107530002301674500F8FF1F38B505464FF430209A
:10754000FFF7AAFF042836D11B4C1C4B4FF4302008
:10755000A36003F18833A360236943F02003236110
:10756000236943F040032361FFF796FF04281BD1F2
:10757000226941F6DF7313402361236943F010034E
:1075800023610F4B0DB1002200E0A5221A804FF4B9
:107590003020FFF781FF05280DD0074A41F6EF7331
:1075A00011690B40136138BD052804D0226941F6EA
:1075B000DF731340236138BD00200240230167457B
:1075C00000F8FF1F2DE9F043DD0603F00F0448BF6C
:1075D000144311F0FF0F1FD0056800224FF0010C7B
:1075E0004FF00F080CFA02F707EA0106BE420FD16E
:1075F000970008FA07F904FA07F725EA0905282B86
:1076000045EA070501D1466102E0482B08BF066143
:107610000132082AE6D10560FF2921D945680022F8
:107620004FF0010C4FF00F0802F108070CFA07F7B2
:1076300007EA0106BE420FD1970008FA07F904FADB
:1076400007F725EA0905282B45EA070501D1466118
:1076500002E0482B08BF06610132082AE4D14560E8
:10766000BDE8F08301617047416170470028164A08
:1076700030B500F44015B4BFD3695368B5F5401F69
:1076800084B206D1556823F0706325F070655560AB
:107690000FE0C20205D5C0F30342032505FA02F24A
:1076A00003E0420D120104FA02F223EA020343F05E
:1076B000706319B1420D120194402343024A00281D
:1076C000B4BFD361536030BD0000014001F003033B
:1076D0009B000F229A40984001F0FC0101F180418B
:1076E00001F5803110B58C6824EA02028A608A684C
:1076F00002438A6010BD0000024A93889B06FCD5B5
:10770000704700BF00280040064B9A881B8892B241
:10771000034004D010420CBF0020012070471846DF
:10772000704700BF00280040034B9A8892B222EABB
:1077300000009880704700BF002800400B8810B5FB
:107740004C88028823438C8802F441522343CC881E
:1077500023430C8923434C8923438C892343CC89BD
:10776000234313439BB20380838B23F400631B04E6
:107770001B0C83830B8A038210BD038819B19BB253
:1077800043F0400303E023F040031B041B0C038081
:10779000704781817047808980B2704703891942A0
:1077A0000CBF002001207047C94389B20182704795
:1077B000038ACA889BB223F44053134330B5038233
:1077C00083890D46AA88098923F4B0530A4323F01C
:1077D0000C0369891B040A431B0C13439BB283816E
:1077E000838AAA899BB223F4407387B0134304466B
:1077F000838201A8FFF78CFC1749049A039B8C42F3
:1078000008BF1346A289192112B25943002A2A68D7
:107810004FF06403B4BF52009200B1FBF2F1B1FB30
:10782000F3F21201100903FB1011A08900B2002825
:1078300006DAC9003231B1FBF3F303F0070305E0C8
:1078400009013231B1FBF3F303F00F031A4392B293
:10785000228107B030BD00BF00380140838919B1D3
:107860009BB243F4005303E023F400531B041B0CAE
:1078700083817047C1F3421310B5012401F01F0149
:10788000A34204FA01F101D10C3003E0022B0CBF3A
:107890001030143003680AB1194301E023EA0101F2
:1078A000016010BDC1F30801818070478088C0F37A
:1078B0000800704710B5C1F3421401F01F03012204
:1078C000012C02FA03F201D1838903E0022C0CBFE0
:1078D000038A838A9BB21340028892B243B1012388
:1078E000090A03FA01F111420CBF0020012010BD6A
:1078F000184610BD090A01238B40DB439BB203806D
:1079000070470000062008B500F0D0FB0120FFF70B
:10791000B3FA00BF014B1868704700BF3400002065
:10792000024B0146186800F003B800BF3400002085
:107930002DE9F04F01F10B05162D064683B024D832
:10794000102900F2B68000F067FB102502201823F2
:10795000DFF8E88443445C68A3F10802944200F035
:10796000B4806368E16823F0030323445A68A56880
:1079700042F00102E96030468D6008345A6000F040
:1079800051FB204603B0BDE8F08F35F0070500F14C
:107990009080A94200F28D8000F03EFBB5F5FC7F9F
:1079A000C0F085816B0A00F08B80042B00F25B81B4
:1079B000AB0903F1390003F13807C100DFF87C841B
:1079C00041444C680839A14206D10CE0002A80F2FB
:1079D0002281E468A14206D0636823F003035A1BA6
:1079E0000F2AF3DD3846D8F81040DFF854C4644558
:1079F00077D0626822F00302531B0F2B00F36581DE
:107A0000002BC8E904CC80F25681B2F5007F80F0EB
:107A100006810121D30852090B4401FA02F2D8F879
:107A2000041058F8337008EBC30E0A43AEF1080196
:107A3000C4E90271C8F8042048F83340FC60012111
:107A400083109940914253D8114206D120F003008F
:107A50004900114200F10400FAD008EBC0094C467D
:107A60008646E768BC4207D109E1002B80F210810D
:107A7000FF68BC4200F003817A6822F00302531BC6
:107A80000F2BF2DD45F0010E3046D7E902413D44AF
:107A900043F00106C7F804E0E1608C60C8E90455D2
:107AA000C5E902CC6E60BB5000F0BCFA07F10804D7
:107AB00002E00C2300243360204603B0BDE8F08FC1
:107AC0004FF4007140203F2778E7DC68A34208BFED
:107AD00002307FF446AFD8F81040DFF864C3644545
